{
  "contractName": "EVoting",
  "abi": [
    {
      "inputs": [],
      "stateMutability": "nonpayable",
      "type": "constructor"
    },
    {
      "anonymous": false,
      "inputs": [
        {
          "indexed": false,
          "internalType": "uint256",
          "name": "candidateId",
          "type": "uint256"
        },
        {
          "indexed": false,
          "internalType": "string",
          "name": "name",
          "type": "string"
        },
        {
          "indexed": false,
          "internalType": "string",
          "name": "party",
          "type": "string"
        }
      ],
      "name": "CandidateAdded",
      "type": "event"
    },
    {
      "anonymous": false,
      "inputs": [
        {
          "indexed": false,
          "internalType": "uint256",
          "name": "electionId",
          "type": "uint256"
        },
        {
          "indexed": false,
          "internalType": "string",
          "name": "name",
          "type": "string"
        },
        {
          "indexed": false,
          "internalType": "uint256",
          "name": "startTime",
          "type": "uint256"
        },
        {
          "indexed": false,
          "internalType": "uint256",
          "name": "endTime",
          "type": "uint256"
        }
      ],
      "name": "ElectionCreated",
      "type": "event"
    },
    {
      "anonymous": false,
      "inputs": [
        {
          "indexed": false,
          "internalType": "uint256",
          "name": "electionId",
          "type": "uint256"
        }
      ],
      "name": "ResultsPublished",
      "type": "event"
    },
    {
      "anonymous": false,
      "inputs": [
        {
          "indexed": false,
          "internalType": "bytes32",
          "name": "voteHash",
          "type": "bytes32"
        },
        {
          "indexed": false,
          "internalType": "uint256",
          "name": "electionId",
          "type": "uint256"
        },
        {
          "indexed": false,
          "internalType": "uint256",
          "name": "timestamp",
          "type": "uint256"
        }
      ],
      "name": "VoteCast",
      "type": "event"
    },
    {
      "inputs": [],
      "name": "admin",
      "outputs": [
        {
          "internalType": "address",
          "name": "",
          "type": "address"
        }
      ],
      "stateMutability": "view",
      "type": "function"
    },
    {
      "inputs": [
        {
          "internalType": "uint256",
          "name": "",
          "type": "uint256"
        }
      ],
      "name": "candidates",
      "outputs": [
        {
          "internalType": "uint256",
          "name": "id",
          "type": "uint256"
        },
        {
          "internalType": "string",
          "name": "name",
          "type": "string"
        },
        {
          "internalType": "string",
          "name": "party",
          "type": "string"
        }
      ],
      "stateMutability": "view",
      "type": "function"
    },
    {
      "inputs": [
        {
          "internalType": "uint256",
          "name": "",
          "type": "uint256"
        }
      ],
      "name": "elections",
      "outputs": [
        {
          "internalType": "uint256",
          "name": "id",
          "type": "uint256"
        },
        {
          "internalType": "string",
          "name": "name",
          "type": "string"
        },
        {
          "internalType": "uint256",
          "name": "startTime",
          "type": "uint256"
        },
        {
          "internalType": "uint256",
          "name": "endTime",
          "type": "uint256"
        },
        {
          "internalType": "bool",
          "name": "resultsPublished",
          "type": "bool"
        }
      ],
      "stateMutability": "view",
      "type": "function"
    },
    {
      "inputs": [
        {
          "internalType": "uint256",
          "name": "_electionId",
          "type": "uint256"
        },
        {
          "internalType": "string",
          "name": "_name",
          "type": "string"
        },
        {
          "internalType": "uint256",
          "name": "_startTime",
          "type": "uint256"
        },
        {
          "internalType": "uint256",
          "name": "_endTime",
          "type": "uint256"
        }
      ],
      "name": "createElection",
      "outputs": [],
      "stateMutability": "nonpayable",
      "type": "function"
    },
    {
      "inputs": [
        {
          "internalType": "uint256",
          "name": "_candidateId",
          "type": "uint256"
        },
        {
          "internalType": "string",
          "name": "_name",
          "type": "string"
        },
        {
          "internalType": "string",
          "name": "_party",
          "type": "string"
        }
      ],
      "name": "addCandidate",
      "outputs": [],
      "stateMutability": "nonpayable",
      "type": "function"
    },
    {
      "inputs": [
        {
          "internalType": "uint256",
          "name": "_electionId",
          "type": "uint256"
        }
      ],
      "name": "publishResults",
      "outputs": [],
      "stateMutability": "nonpayable",
      "type": "function"
    },
    {
      "inputs": [
        {
          "internalType": "uint256",
          "name": "_electionId",
          "type": "uint256"
        },
        {
          "internalType": "uint256",
          "name": "_candidateId",
          "type": "uint256"
        },
        {
          "internalType": "bytes32",
          "name": "_secretHash",
          "type": "bytes32"
        }
      ],
      "name": "castVote",
      "outputs": [],
      "stateMutability": "nonpayable",
      "type": "function"
    },
    {
      "inputs": [
        {
          "internalType": "address",
          "name": "_voter",
          "type": "address"
        },
        {
          "internalType": "uint256",
          "name": "_electionId",
          "type": "uint256"
        }
      ],
      "name": "voterHasVoted",
      "outputs": [
        {
          "internalType": "bool",
          "name": "",
          "type": "bool"
        }
      ],
      "stateMutability": "view",
      "type": "function"
    },
    {
      "inputs": [
        {
          "internalType": "bytes32",
          "name": "_voteHash",
          "type": "bytes32"
        }
      ],
      "name": "verifyVote",
      "outputs": [
        {
          "internalType": "bool",
          "name": "",
          "type": "bool"
        }
      ],
      "stateMutability": "view",
      "type": "function"
    },
    {
      "inputs": [
        {
          "internalType": "uint256",
          "name": "_electionId",
          "type": "uint256"
        },
        {
          "internalType": "uint256",
          "name": "_candidateId",
          "type": "uint256"
        }
      ],
      "name": "getCandidateVotes",
      "outputs": [
        {
          "internalType": "uint256",
          "name": "",
          "type": "uint256"
        }
      ],
      "stateMutability": "view",
      "type": "function"
    }
  ],
  "bytecode": "0x608060405234801561000f575f80fd5b50335f806101000a81548173ffffffffffffffffffffffffffffffffffffffff021916908373ffffffffffffffffffffffffffffffffffffffff160217905550611ea98061005c5f395ff3fe608060405234801561000f575f80fd5b506004361061009c575f3560e01c80637504e5a0116100645780637504e5a014610182578063bfad9cc01461019e578063e0188ba6146101ba578063e6c62efc146101ea578063f851a440146102065761009c565b8063112d26a9146100a05780633477ee2e146100d05780634fa24ac5146101025780635636a9dc1461011e5780635e6fef011461014e575b5f80fd5b6100ba60048036038101906100b59190610e91565b610224565b6040516100c79190610ede565b60405180910390f35b6100ea60048036038101906100e59190610ef7565b6102ae565b6040516100f993929190610fac565b60405180910390f35b61011c6004803603810190610117919061111b565b6103e0565b005b610138600480360381019061013391906111f5565b6105d5565b604051610145919061124d565b60405180910390f35b61016860048036038101906101639190610ef7565b610637565b604051610179959493929190611266565b60405180910390f35b61019c600480360381019061019791906112f1565b6106fb565b005b6101b860048036038101906101b39190610ef7565b610a7f565b005b6101d460048036038101906101cf9190611341565b610c7f565b6040516101e1919061124d565b60405180910390f35b61020460048036038101906101ff919061136c565b610ca5565b005b61020e610e2a565b60405161021b9190611403565b60405180910390f35b5f60015f8481526020019081526020015f206004015f9054906101000a900460ff16610285576040517f08c379a000000000000000000000000000000000000000000000000000000000815260040161027c90611466565b60405180910390fd5b60035f8481526020019081526020015f205f8381526020019081526020015f2054905092915050565b6002602052805f5260405f205f91509050805f0154908060010180546102d3906114b1565b80601f01602080910402602001604051908101604052809291908181526020018280546102ff906114b1565b801561034a5780601f106103215761010080835404028352916020019161034a565b820191905f5260205f20905b81548152906001019060200180831161032d57829003601f168201915b50505050509080600201805461035f906114b1565b80601f016020809104026020016040519081016040528092919081815260200182805461038b906114b1565b80156103d65780601f106103ad576101008083540402835291602001916103d6565b820191905f5260205f20905b8154815290600101906020018083116103b957829003601f168201915b5050505050905083565b5f8054906101000a900473ffffffffffffffffffffffffffffffffffffffff1673ffffffffffffffffffffffffffffffffffffffff163373ffffffffffffffffffffffffffffffffffffffff161461046d576040517f08c379a000000000000000000000000000000000000000000000000000000000815260040161046490611551565b60405180910390fd5b8360015f8681526020019081526020015f205f0154036104c2576040517f08c379a00000000000000000000000000000000000000000000000000000000081526004016104b9906115b9565b60405180910390fd5b808210610504576040517f08c379a00000000000000000000000000000000000000000000000000000000081526004016104fb90611647565b60405180910390fd5b6040518060a001604052808581526020018481526020018381526020018281526020015f151581525060015f8681526020019081526020015f205f820151815f0155602082015181600101908161055b9190611802565b5060408201518160020155606082015181600301556080820151816004015f6101000a81548160ff0219169083151502179055509050507fe7a0aae5d733e07e246dea86213a1ac1b0aa8554bde889bb75c12752f44e53d9848484846040516105c794939291906118d1565b60405180910390a150505050565b5f60045f8473ffffffffffffffffffffffffffffffffffffffff1673ffffffffffffffffffffffffffffffffffffffff1681526020019081526020015f205f8381526020019081526020015f205f9054906101000a900460ff16905092915050565b6001602052805f5260405f205f91509050805f01549080600101805461065c906114b1565b80601f0160208091040260200160405190810160405280929190818152602001828054610688906114b1565b80156106d35780601f106106aa576101008083540402835291602001916106d3565b820191905f5260205f20905b8154815290600101906020018083116106b657829003601f168201915b505050505090806002015490806003015490806004015f9054906101000a900460ff16905085565b828060015f8381526020019081526020015f205f015414610751576040517f08c379a000000000000000000000000000000000000000000000000000000000815260040161074890611965565b60405180910390fd5b60015f8281526020019081526020015f20600201544210156107a8576040517f08c379a000000000000000000000000000000000000000000000000000000000815260040161079f906119cd565b60405180910390fd5b60015f8281526020019081526020015f20600301544211156107ff576040517f08c379a00000000000000000000000000000000000000000000000000000000081526004016107f690611a35565b60405180910390fd5b60045f3373ffffffffffffffffffffffffffffffffffffffff1673ffffffffffffffffffffffffffffffffffffffff1681526020019081526020015f205f8581526020019081526020015f205f9054906101000a900460ff1615610898576040517f08c379a000000000000000000000000000000000000000000000000000000000815260040161088f90611ac3565b60405180910390fd5b8260025f8581526020019081526020015f205f0154146108ed576040517f08c379a00000000000000000000000000000000000000000000000000000000081526004016108e490611b2b565b60405180910390fd5b5f338585856040516020016109059493929190611bce565b60405160208183030381529060405280519060200120905060055f8281526020019081526020015f205f9054906101000a900460ff161561097b576040517f08c379a000000000000000000000000000000000000000000000000000000000815260040161097290611c65565b60405180910390fd5b60035f8681526020019081526020015f205f8581526020019081526020015f205f8154809291906109ab90611cb0565b9190505550600160045f3373ffffffffffffffffffffffffffffffffffffffff1673ffffffffffffffffffffffffffffffffffffffff1681526020019081526020015f205f8781526020019081526020015f205f6101000a81548160ff021916908315150217905550600160055f8381526020019081526020015f205f6101000a81548160ff0219169083151502179055507f03527ab37810ea1e67b3626147543fe1779458d76981a984fc7e03ed1319c0a8818642604051610a7093929190611d06565b60405180910390a15050505050565b5f8054906101000a900473ffffffffffffffffffffffffffffffffffffffff1673ffffffffffffffffffffffffffffffffffffffff163373ffffffffffffffffffffffffffffffffffffffff1614610b0c576040517f08c379a0000000000000000000000000000000000000000000000000000000008152600401610b0390611551565b60405180910390fd5b808060015f8381526020019081526020015f205f015414610b62576040517f08c379a0000000000000000000000000000000000000000000000000000000008152600401610b5990611965565b60405180910390fd5b60015f8381526020019081526020015f20600301544211610bb8576040517f08c379a0000000000000000000000000000000000000000000000000000000008152600401610baf90611d85565b60405180910390fd5b60015f8381526020019081526020015f206004015f9054906101000a900460ff1615610c19576040517f08c379a0000000000000000000000000000000000000000000000000000000008152600401610c1090611ded565b60405180910390fd5b6001805f8481526020019081526020015f206004015f6101000a81548160ff0219169083151502179055507fee088bcc4c9bbd048c9c087916ec26aae94e63151610af8167078ef170e5ae6082604051610c739190610ede565b60405180910390a15050565b5f60055f8381526020019081526020015f205f9054906101000a900460ff169050919050565b5f8054906101000a900473ffffffffffffffffffffffffffffffffffffffff1673ffffffffffffffffffffffffffffffffffffffff163373ffffffffffffffffffffffffffffffffffffffff1614610d32576040517f08c379a0000000000000000000000000000000000000000000000000000000008152600401610d2990611551565b60405180910390fd5b8260025f8581526020019081526020015f205f015403610d87576040517f08c379a0000000000000000000000000000000000000000000000000000000008152600401610d7e90611e55565b60405180910390fd5b60405180606001604052808481526020018381526020018281525060025f8581526020019081526020015f205f820151815f01556020820151816001019081610dd09190611802565b506040820151816002019081610de69190611802565b509050507fe64f834082661dd9ed89427b87edb6270fd6dad17198b0938f0edd058914c87f838383604051610e1d93929190610fac565b60405180910390a1505050565b5f8054906101000a900473ffffffffffffffffffffffffffffffffffffffff1681565b5f604051905090565b5f80fd5b5f80fd5b5f819050919050565b610e7081610e5e565b8114610e7a575f80fd5b50565b5f81359050610e8b81610e67565b92915050565b5f8060408385031215610ea757610ea6610e56565b5b5f610eb485828601610e7d565b9250506020610ec585828601610e7d565b9150509250929050565b610ed881610e5e565b82525050565b5f602082019050610ef15f830184610ecf565b92915050565b5f60208284031215610f0c57610f0b610e56565b5b5f610f1984828501610e7d565b91505092915050565b5f81519050919050565b5f82825260208201905092915050565b5f5b83811015610f59578082015181840152602081019050610f3e565b5f8484015250505050565b5f601f19601f8301169050919050565b5f610f7e82610f22565b610f888185610f2c565b9350610f98818560208601610f3c565b610fa181610f64565b840191505092915050565b5f606082019050610fbf5f830186610ecf565b8181036020830152610fd18185610f74565b90508181036040830152610fe58184610f74565b9050949350505050565b5f80fd5b5f80fd5b7f4e487b71000000000000000000000000000000000000000000000000000000005f52604160045260245ffd5b61102d82610f64565b810181811067ffffffffffffffff8211171561104c5761104b610ff7565b5b80604052505050565b5f61105e610e4d565b905061106a8282611024565b919050565b5f67ffffffffffffffff82111561108957611088610ff7565b5b61109282610f64565b9050602081019050919050565b828183375f83830152505050565b5f6110bf6110ba8461106f565b611055565b9050828152602081018484840111156110db576110da610ff3565b5b6110e684828561109f565b509392505050565b5f82601f83011261110257611101610fef565b5b81356111128482602086016110ad565b91505092915050565b5f805f806080858703121561113357611132610e56565b5b5f61114087828801610e7d565b945050602085013567ffffffffffffffff81111561116157611160610e5a565b5b61116d878288016110ee565b935050604061117e87828801610e7d565b925050606061118f87828801610e7d565b91505092959194509250565b5f73ffffffffffffffffffffffffffffffffffffffff82169050919050565b5f6111c48261119b565b9050919050565b6111d4816111ba565b81146111de575f80fd5b50565b5f813590506111ef816111cb565b92915050565b5f806040838503121561120b5761120a610e56565b5b5f611218858286016111e1565b925050602061122985828601610e7d565b9150509250929050565b5f8115159050919050565b61124781611233565b82525050565b5f6020820190506112605f83018461123e565b92915050565b5f60a0820190506112795f830188610ecf565b818103602083015261128b8187610f74565b905061129a6040830186610ecf565b6112a76060830185610ecf565b6112b4608083018461123e565b9695505050505050565b5f819050919050565b6112d0816112be565b81146112da575f80fd5b50565b5f813590506112eb816112c7565b92915050565b5f805f6060848603121561130857611307610e56565b5b5f61131586828701610e7d565b935050602061132686828701610e7d565b9250506040611337868287016112dd565b9150509250925092565b5f6020828403121561135657611355610e56565b5b5f611363848285016112dd565b91505092915050565b5f805f6060848603121561138357611382610e56565b5b5f61139086828701610e7d565b935050602084013567ffffffffffffffff8111156113b1576113b0610e5a565b5b6113bd868287016110ee565b925050604084013567ffffffffffffffff8111156113de576113dd610e5a565b5b6113ea868287016110ee565b9150509250925092565b6113fd816111ba565b82525050565b5f6020820190506114165f8301846113f4565b92915050565b7f526573756c747320617265206e6f74207075626c6973686564207965740000005f82015250565b5f611450601d83610f2c565b915061145b8261141c565b602082019050919050565b5f6020820190508181035f83015261147d81611444565b9050919050565b7f4e487b71000000000000000000000000000000000000000000000000000000005f52602260045260245ffd5b5f60028204905060018216806114c857607f821691505b6020821081036114db576114da611484565b5b50919050565b7f4f6e6c792061646d696e2063616e20706572666f726d207468697320616374695f8201527f6f6e000000000000000000000000000000000000000000000000000000000000602082015250565b5f61153b602283610f2c565b9150611546826114e1565b604082019050919050565b5f6020820190508181035f8301526115688161152f565b9050919050565b7f456c656374696f6e20494420616c7265616479206578697374730000000000005f82015250565b5f6115a3601a83610f2c565b91506115ae8261156f565b602082019050919050565b5f6020820190508181035f8301526115d081611597565b9050919050565b7f456e642074696d65206d7573742062652061667465722073746172742074696d5f8201527f6500000000000000000000000000000000000000000000000000000000000000602082015250565b5f611631602183610f2c565b915061163c826115d7565b604082019050919050565b5f6020820190508181035f83015261165e81611625565b9050919050565b5f819050815f5260205f209050919050565b5f6020601f8301049050919050565b5f82821b905092915050565b5f600883026116c17fffffffffffffffffffffffffffffffffffffffffffffffffffffffffffffffff82611686565b6116cb8683611686565b95508019841693508086168417925050509392505050565b5f819050919050565b5f6117066117016116fc84610e5e565b6116e3565b610e5e565b9050919050565b5f819050919050565b61171f836116ec565b61173361172b8261170d565b848454611692565b825550505050565b5f90565b61174761173b565b611752818484611716565b505050565b5b818110156117755761176a5f8261173f565b600181019050611758565b5050565b601f8211156117ba5761178b81611665565b61179484611677565b810160208510156117a3578190505b6117b76117af85611677565b830182611757565b50505b505050565b5f82821c905092915050565b5f6117da5f19846008026117bf565b1980831691505092915050565b5f6117f283836117cb565b9150826002028217905092915050565b61180b82610f22565b67ffffffffffffffff81111561182457611823610ff7565b5b61182e82546114b1565b611839828285611779565b5f60209050601f83116001811461186a575f8415611858578287015190505b61186285826117e7565b8655506118c9565b601f19841661187886611665565b5f5b8281101561189f5784890151825560018201915060208501945060208101905061187a565b868310156118bc57848901516118b8601f8916826117cb565b8355505b6001600288020188555050505b505050505050565b5f6080820190506118e45f830187610ecf565b81810360208301526118f68186610f74565b90506119056040830185610ecf565b6119126060830184610ecf565b95945050505050565b7f456c656374696f6e20646f6573206e6f742065786973740000000000000000005f82015250565b5f61194f601783610f2c565b915061195a8261191b565b602082019050919050565b5f6020820190508181035f83015261197c81611943565b9050919050565b7f456c656374696f6e20686173206e6f74207374617274656420796574000000005f82015250565b5f6119b7601c83610f2c565b91506119c282611983565b602082019050919050565b5f6020820190508181035f8301526119e4816119ab565b9050919050565b7f456c656374696f6e2068617320656e64656400000000000000000000000000005f82015250565b5f611a1f601283610f2c565b9150611a2a826119eb565b602082019050919050565b5f6020820190508181035f830152611a4c81611a13565b9050919050565b7f596f75206861766520616c726561647920766f74656420696e207468697320655f8201527f6c656374696f6e00000000000000000000000000000000000000000000000000602082015250565b5f611aad602783610f2c565b9150611ab882611a53565b604082019050919050565b5f6020820190508181035f830152611ada81611aa1565b9050919050565b7f43616e64696461746520646f6573206e6f7420657869737400000000000000005f82015250565b5f611b15601883610f2c565b9150611b2082611ae1565b602082019050919050565b5f6020820190508181035f830152611b4281611b09565b9050919050565b5f8160601b9050919050565b5f611b5f82611b49565b9050919050565b5f611b7082611b55565b9050919050565b611b88611b83826111ba565b611b66565b82525050565b5f819050919050565b611ba8611ba382610e5e565b611b8e565b82525050565b5f819050919050565b611bc8611bc3826112be565b611bae565b82525050565b5f611bd98287611b77565b601482019150611be98286611b97565b602082019150611bf98285611b97565b602082019150611c098284611bb7565b60208201915081905095945050505050565b7f566f7465206861736820616c72656164792065786973747300000000000000005f82015250565b5f611c4f601883610f2c565b9150611c5a82611c1b565b602082019050919050565b5f6020820190508181035f830152611c7c81611c43565b9050919050565b7f4e487b71000000000000000000000000000000000000000000000000000000005f52601160045260245ffd5b5f611cba82610e5e565b91507fffffffffffffffffffffffffffffffffffffffffffffffffffffffffffffffff8203611cec57611ceb611c83565b5b600182019050919050565b611d00816112be565b82525050565b5f606082019050611d195f830186611cf7565b611d266020830185610ecf565b611d336040830184610ecf565b949350505050565b7f456c656374696f6e206973207374696c6c2061637469766500000000000000005f82015250565b5f611d6f601883610f2c565b9150611d7a82611d3b565b602082019050919050565b5f6020820190508181035f830152611d9c81611d63565b9050919050565b7f526573756c747320616c7265616479207075626c6973686564000000000000005f82015250565b5f611dd7601983610f2c565b9150611de282611da3565b602082019050919050565b5f6020820190508181035f830152611e0481611dcb565b9050919050565b7f43616e64696461746520494420616c72656164792065786973747300000000005f82015250565b5f611e3f601b83610f2c565b9150611e4a82611e0b565b602082019050919050565b5f6020820190508181035f830152611e6c81611e33565b905091905056fea2646970667358221220264d0430907a31cc5eda99f2ce431e70933689447137a2a14f6efbb510b1af7664736f6c63430008150033",
  "immutableReferences": {},
  "source": "// SPDX-License-Identifier: MIT\npragma solidity ^0.8.0;\n\ncontract EVoting {\n    // Admin address\n    address public admin;\n    \n    // Election structure\n    struct Election {\n        uint256 id;\n        string name;\n        uint256 startTime;\n        uint256 endTime;\n        bool resultsPublished;\n    }\n    \n    // Candidate structure\n    struct Candidate {\n        uint256 id;\n        string name;\n        string party;\n    }\n    \n    // Vote structure (private)\n    struct Vote {\n        address voter;\n        uint256 electionId;\n        uint256 candidateId;\n        uint256 timestamp;\n        bytes32 voteHash;\n    }\n    \n    // Mappings\n    mapping(uint256 => Election) public elections;\n    mapping(uint256 => Candidate) public candidates;\n    mapping(uint256 => mapping(uint256 => uint256)) private electionCandidateVotes; // electionId => candidateId => voteCount\n    mapping(address => mapping(uint256 => bool)) private hasVoted; // voter => electionId => hasVoted\n    mapping(bytes32 => bool) private voteHashes; // voteHash => exists\n    \n    // Events\n    event ElectionCreated(uint256 electionId, string name, uint256 startTime, uint256 endTime);\n    event CandidateAdded(uint256 candidateId, string name, string party);\n    event VoteCast(bytes32 voteHash, uint256 electionId, uint256 timestamp);\n    event ResultsPublished(uint256 electionId);\n    \n    // Constructor\n    constructor() {\n        admin = msg.sender;\n    }\n    \n    // Modifiers\n    modifier onlyAdmin() {\n        require(msg.sender == admin, \"Only admin can perform this action\");\n        _;\n    }\n    \n    modifier electionExists(uint256 _electionId) {\n        require(elections[_electionId].id == _electionId, \"Election does not exist\");\n        _;\n    }\n    \n    modifier electionActive(uint256 _electionId) {\n        require(elections[_electionId].id == _electionId, \"Election does not exist\");\n        require(block.timestamp >= elections[_electionId].startTime, \"Election has not started yet\");\n        require(block.timestamp <= elections[_electionId].endTime, \"Election has ended\");\n        _;\n    }\n    \n    // Admin Functions\n    \n    // Create a new election\n    function createElection(uint256 _electionId, string memory _name, uint256 _startTime, uint256 _endTime) public onlyAdmin {\n        require(elections[_electionId].id != _electionId, \"Election ID already exists\");\n        require(_startTime < _endTime, \"End time must be after start time\");\n        \n        elections[_electionId] = Election({\n            id: _electionId,\n            name: _name,\n            startTime: _startTime,\n            endTime: _endTime,\n            resultsPublished: false\n        });\n        \n        emit ElectionCreated(_electionId, _name, _startTime, _endTime);\n    }\n    \n    // Add a candidate\n    function addCandidate(uint256 _candidateId, string memory _name, string memory _party) public onlyAdmin {\n        require(candidates[_candidateId].id != _candidateId, \"Candidate ID already exists\");\n        \n        candidates[_candidateId] = Candidate({\n            id: _candidateId,\n            name: _name,\n            party: _party\n        });\n        \n        emit CandidateAdded(_candidateId, _name, _party);\n    }\n    \n    // Publish results\n    function publishResults(uint256 _electionId) public onlyAdmin electionExists(_electionId) {\n        require(block.timestamp > elections[_electionId].endTime, \"Election is still active\");\n        require(!elections[_electionId].resultsPublished, \"Results already published\");\n        \n        elections[_electionId].resultsPublished = true;\n        \n        emit ResultsPublished(_electionId);\n    }\n    \n    // Voting Functions\n    \n    // Cast a vote\n    function castVote(uint256 _electionId, uint256 _candidateId, bytes32 _secretHash) public electionActive(_electionId) {\n        require(!hasVoted[msg.sender][_electionId], \"You have already voted in this election\");\n        require(candidates[_candidateId].id == _candidateId, \"Candidate does not exist\");\n        \n        // Create vote hash (for verification)\n        bytes32 voteHash = keccak256(abi.encodePacked(msg.sender, _electionId, _candidateId, _secretHash));\n        require(!voteHashes[voteHash], \"Vote hash already exists\");\n        \n        // Record vote\n        electionCandidateVotes[_electionId][_candidateId]++;\n        hasVoted[msg.sender][_electionId] = true;\n        voteHashes[voteHash] = true;\n        \n        emit VoteCast(voteHash, _electionId, block.timestamp);\n    }\n    \n    // Public Views\n    \n    // Check if voter has voted\n    function voterHasVoted(address _voter, uint256 _electionId) public view returns (bool) {\n        return hasVoted[_voter][_electionId];\n    }\n    \n    // Verify vote hash\n    function verifyVote(bytes32 _voteHash) public view returns (bool) {\n        return voteHashes[_voteHash];\n    }\n    \n    // Get candidate vote count (only after results are published)\n    function getCandidateVotes(uint256 _electionId, uint256 _candidateId) public view returns (uint256) {\n        require(elections[_electionId].resultsPublished, \"Results are not published yet\");\n        return electionCandidateVotes[_electionId][_candidateId];\n    }\n}",
  "sourcePath": "/Users/himanshu/Desktop/Advanced-Voting-System-using-Blockchain-and-deep-learing/blockchain/contracts/EVoting.sol",
  "compiler": {
    "name": "solc",
    "version": "0.8.21+commit.d9974bed.Emscripten.clang"
  },
  "schemaVersion": "3.4.16",
  "updatedAt": "2025-04-25T04:58:34.437Z",
  "devdoc": {
    "kind": "dev",
    "methods": {},
    "version": 1
  },
  "userdoc": {
    "kind": "user",
    "methods": {},
    "version": 1
  }
}